{
  "_format": "hh-sol-artifact-1",
  "contractName": "TokenICO",
  "sourceName": "contracts/TokenICO.sol",
  "abi": [
    {
      "inputs": [],
      "stateMutability": "nonpayable",
      "type": "constructor"
    },
    {
      "inputs": [],
      "name": "CannotRescueSaleToken",
      "type": "error"
    },
    {
      "inputs": [],
      "name": "EthTranferFailed",
      "type": "error"
    },
    {
      "inputs": [],
      "name": "InvalidAddress",
      "type": "error"
    },
    {
      "inputs": [],
      "name": "InvalidPrice",
      "type": "error"
    },
    {
      "inputs": [],
      "name": "NoEthSent",
      "type": "error"
    },
    {
      "inputs": [],
      "name": "NoTokensToRescue",
      "type": "error"
    },
    {
      "inputs": [],
      "name": "NoTokensToWithdraw",
      "type": "error"
    },
    {
      "inputs": [],
      "name": "OnlyOwner",
      "type": "error"
    },
    {
      "inputs": [],
      "name": "SaleTokenNotSet",
      "type": "error"
    },
    {
      "inputs": [],
      "name": "TokenTransferFailed",
      "type": "error"
    },
    {
      "inputs": [],
      "name": "UseTokenFunction",
      "type": "error"
    },
    {
      "anonymous": false,
      "inputs": [
        {
          "indexed": false,
          "internalType": "uint256",
          "name": "oldPrice",
          "type": "uint256"
        },
        {
          "indexed": false,
          "internalType": "uint256",
          "name": "newPrice",
          "type": "uint256"
        }
      ],
      "name": "PriceUpdated",
      "type": "event"
    },
    {
      "anonymous": false,
      "inputs": [
        {
          "indexed": true,
          "internalType": "address",
          "name": "token",
          "type": "address"
        }
      ],
      "name": "SaleTokenSet",
      "type": "event"
    },
    {
      "anonymous": false,
      "inputs": [
        {
          "indexed": true,
          "internalType": "address",
          "name": "buyer",
          "type": "address"
        },
        {
          "indexed": false,
          "internalType": "uint256",
          "name": "amountPaid",
          "type": "uint256"
        },
        {
          "indexed": false,
          "internalType": "uint256",
          "name": "tokensBought",
          "type": "uint256"
        }
      ],
      "name": "TokensPurchased",
      "type": "event"
    },
    {
      "inputs": [],
      "name": "buyToken",
      "outputs": [],
      "stateMutability": "payable",
      "type": "function"
    },
    {
      "inputs": [],
      "name": "ethPriceForToken",
      "outputs": [
        {
          "internalType": "uint256",
          "name": "",
          "type": "uint256"
        }
      ],
      "stateMutability": "view",
      "type": "function"
    },
    {
      "inputs": [],
      "name": "getContractInfo",
      "outputs": [
        {
          "internalType": "address",
          "name": "tokenAddress",
          "type": "address"
        },
        {
          "internalType": "string",
          "name": "tokenSymbol",
          "type": "string"
        },
        {
          "internalType": "uint8",
          "name": "tokenDecimals",
          "type": "uint8"
        },
        {
          "internalType": "uint256",
          "name": "tokenBalance",
          "type": "uint256"
        },
        {
          "internalType": "uint256",
          "name": "ethPrice",
          "type": "uint256"
        },
        {
          "internalType": "uint256",
          "name": "tokensSold",
          "type": "uint256"
        }
      ],
      "stateMutability": "view",
      "type": "function"
    },
    {
      "inputs": [],
      "name": "owner",
      "outputs": [
        {
          "internalType": "address",
          "name": "",
          "type": "address"
        }
      ],
      "stateMutability": "view",
      "type": "function"
    },
    {
      "inputs": [
        {
          "internalType": "address",
          "name": "tokenAddress",
          "type": "address"
        }
      ],
      "name": "rescueTokens",
      "outputs": [],
      "stateMutability": "nonpayable",
      "type": "function"
    },
    {
      "inputs": [],
      "name": "saleToken",
      "outputs": [
        {
          "internalType": "address",
          "name": "",
          "type": "address"
        }
      ],
      "stateMutability": "view",
      "type": "function"
    },
    {
      "inputs": [
        {
          "internalType": "address",
          "name": "_token",
          "type": "address"
        }
      ],
      "name": "setSaleToken",
      "outputs": [],
      "stateMutability": "nonpayable",
      "type": "function"
    },
    {
      "inputs": [],
      "name": "tokensSold",
      "outputs": [
        {
          "internalType": "uint256",
          "name": "",
          "type": "uint256"
        }
      ],
      "stateMutability": "view",
      "type": "function"
    },
    {
      "inputs": [
        {
          "internalType": "uint256",
          "name": "newPrice",
          "type": "uint256"
        }
      ],
      "name": "updateTokenPrice",
      "outputs": [],
      "stateMutability": "nonpayable",
      "type": "function"
    },
    {
      "inputs": [],
      "name": "withdrawAllTokens",
      "outputs": [],
      "stateMutability": "nonpayable",
      "type": "function"
    },
    {
      "stateMutability": "payable",
      "type": "receive"
    }
  ],
  "bytecode": "0x60a080604052346100515766038d7ea4c6800060015533608052610a1d908161005782396080518181816101b90152818161032d015281816103c5015281816105df0152818161069c015261080f0152f35b600080fdfe608060408181526004918236101561002b575b50361561001e57600080fd5b5163b67b8d2960e01b8152fd5b600090813560e01c908162ae3bf8146107e157508063280da6fa14610687578063518ab2a814610668578063676c0d77146105c75780637cc1f867146103f45780638da5cb5b146103b0578063a29f481c14610302578063a4821719146100eb578063c605af53146100cc5763e985e367036100125790346100c857816003193601126100c857905490516001600160a01b039091168152602090f35b5080fd5b5090346100c857816003193601126100c8576020906001549051908152f35b509190826003193601126102fe5734156102f15782546001600160a01b031680156102e357815163313ce56760e01b81526020939084818381865afa908115610286579060ff9187916102b6575b5016604d81116102a357600a0a80340290348204036102a3576001549081156102905704918260025401600255848451809263a9059cbb60e01b825281898161019a89338a840160209093929193604081019460018060a01b031681520152565b03925af1908115610286578691610259575b501561024b5784808080347f00000000000000000000000000000000000000000000000000000000000000005af13d15610246573d6101ea816109cb565b906101f78651928361095d565b815286863d92013e5b156102385750907f8fafebcaf9d154343dad25669bfa277f4fbacd7ac6b0c4fed522580e040a0f33918151933485528401523392a280f35b825163452d47fd60e01b8152fd5b610200565b825163022e258160e11b8152fd5b6102799150853d871161027f575b610271818361095d565b810190610995565b386101ac565b503d610267565b84513d88823e3d90fd5b634e487b7160e01b875260128352602487fd5b634e487b7160e01b865260118252602486fd5b6102d69150863d88116102dc575b6102ce818361095d565b8101906109b2565b38610139565b503d6102c4565b505163a327f80560e01b8152fd5b5163717e6b7b60e01b8152fd5b8280fd5b5091346102fe5760203660031901126102fe5780356001600160a01b0381811693918490036103ac577f000000000000000000000000000000000000000000000000000000000000000016330361039f57821561039257505081546001600160a01b031916811782557f3f8bb5f6e8ecfb5425a48c996d20089aff3396b3c168c13403c3fa3996f70a028280a280f35b5163e6c4247b60e01b8152fd5b51635fc483c560e01b8152fd5b8480fd5b5090346100c857816003193601126100c857517f00000000000000000000000000000000000000000000000000000000000000006001600160a01b03168152602090f35b50346105c457806003193601126105c457805482516395d89b4160e01b81526001600160a01b039091169180828681865afa9182156105b8578192610538575b50835163313ce56760e01b815260209485828881885afa91821561052e57839261050f575b508051966370a0823160e01b885230908801528587602481885afa9081156105065783916104d4575b60e096975060ff600154936104b283519a8b998a5260c0818b015288519889918260c08d01528c8c01910161093a565b16908601526060850152608084015260a0830152601f01601f19168101030190f35b90508587813d83116104ff575b6104eb818361095d565b810103126102fe5795519495869590610482565b503d6104e1565b513d84823e3d90fd5b610527919250863d88116102dc576102ce818361095d565b9038610459565b81513d85823e3d90fd5b9091503d8083833e61054a818361095d565b8101906020818303126102fe5780519067ffffffffffffffff82116105b4570181601f820112156102fe57805190610581826109cb565b9261058e8751948561095d565b828452602083830101116105b457906105ad916020808501910161093a565b9038610434565b8380fd5b508351903d90823e3d90fd5b80fd5b5091346102fe5760203660031901126102fe578035907f00000000000000000000000000000000000000000000000000000000000000006001600160a01b0316330361065a57811561064d5750907f945c1c4e99aa89f648fbfe3df471b916f719e16d960fcec0737d4d56bd69683891600154908060015582519182526020820152a180f35b825162bfc92160e01b8152fd5b8251635fc483c560e01b8152fd5b5090346100c857816003193601126100c8576020906002549051908152f35b509190346102fe57826003193601126102fe577f00000000000000000000000000000000000000000000000000000000000000006001600160a01b0380821633036107d2578454168251906370a0823160e01b825230858301526020928383602481855afa9283156107c8578793610795575b50821561078557845163a9059cbb60e01b81526001600160a01b039091168682019081526020810193909352918391839182908990829060400103925af191821561077b57859261075e575b505015610751578280f35b5163022e258160e11b8152fd5b6107749250803d1061027f57610271818361095d565b3880610746565b83513d87823e3d90fd5b8451637dd28aa760e11b81528690fd5b9092508381813d83116107c1575b6107ad818361095d565b810103126107bd575191386106fa565b8680fd5b503d6107a3565b85513d89823e3d90fd5b505051635fc483c560e01b8152fd5b84848492346105b457602090816003193601126103ac5783356001600160a01b03818116918290036107bd577f000000000000000000000000000000000000000000000000000000000000000092818416330361092c5750865416811461091c5783516370a0823160e01b81523086820152918383602481855afa9283156107c85787936108ed575b5082156108dd57845163a9059cbb60e01b81526001600160a01b039091168682019081526020810193909352918391839182908990829060400103925af191821561077b5785926108c057505015610751578280f35b6108d69250803d1061027f57610271818361095d565b8480610746565b84516362f3ba9760e01b81528690fd5b9092508381813d8311610915575b610905818361095d565b810103126107bd5751918761086a565b503d6108fb565b5050505163ad2b859d60e01b8152fd5b635fc483c560e01b81528690fd5b60005b83811061094d5750506000910152565b818101518382015260200161093d565b90601f8019910116810190811067ffffffffffffffff82111761097f57604052565b634e487b7160e01b600052604160045260246000fd5b908160209103126109ad575180151581036109ad5790565b600080fd5b908160209103126109ad575160ff811681036109ad5790565b67ffffffffffffffff811161097f57601f01601f19166020019056fea26469706673582212200c7b1eff6e6dfeeec9061a117e33ad465d8968f26a7f700d3d52d6c69dfec29364736f6c63430008130033",
  "linkReferences": {},
  "deployedLinkReferences": {}
}