{
  "_format": "hh-sol-artifact-1",
  "contractName": "TokenICO",
  "sourceName": "contracts/TokenICO.sol",
  "abi": [
    {
      "inputs": [],
      "stateMutability": "nonpayable",
      "type": "constructor"
    },
    {
      "inputs": [],
      "name": "CannotRescueSaleToken",
      "type": "error"
    },
    {
      "inputs": [],
      "name": "EthTransferFailed",
      "type": "error"
    },
    {
      "inputs": [],
      "name": "InvalidAddress",
      "type": "error"
    },
    {
      "inputs": [],
      "name": "InvalidPrice",
      "type": "error"
    },
    {
      "inputs": [],
      "name": "NoEthSent",
      "type": "error"
    },
    {
      "inputs": [],
      "name": "NoTokensToRescue",
      "type": "error"
    },
    {
      "inputs": [],
      "name": "NoTokensToWithdraw",
      "type": "error"
    },
    {
      "inputs": [],
      "name": "OnlyOwner",
      "type": "error"
    },
    {
      "inputs": [],
      "name": "SaleTokenNotSet",
      "type": "error"
    },
    {
      "inputs": [],
      "name": "TokenTransferFailed",
      "type": "error"
    },
    {
      "inputs": [],
      "name": "UseTokenFunction",
      "type": "error"
    },
    {
      "anonymous": false,
      "inputs": [
        {
          "indexed": false,
          "internalType": "uint256",
          "name": "oldPrice",
          "type": "uint256"
        },
        {
          "indexed": false,
          "internalType": "uint256",
          "name": "newPrice",
          "type": "uint256"
        }
      ],
      "name": "PriceUpdated",
      "type": "event"
    },
    {
      "anonymous": false,
      "inputs": [
        {
          "indexed": true,
          "internalType": "address",
          "name": "token",
          "type": "address"
        }
      ],
      "name": "SaleTokenSet",
      "type": "event"
    },
    {
      "anonymous": false,
      "inputs": [
        {
          "indexed": true,
          "internalType": "address",
          "name": "buyer",
          "type": "address"
        },
        {
          "indexed": false,
          "internalType": "uint256",
          "name": "amountPaid",
          "type": "uint256"
        },
        {
          "indexed": false,
          "internalType": "uint256",
          "name": "tokensBought",
          "type": "uint256"
        }
      ],
      "name": "TokensPurchased",
      "type": "event"
    },
    {
      "inputs": [],
      "name": "buyToken",
      "outputs": [],
      "stateMutability": "payable",
      "type": "function"
    },
    {
      "inputs": [],
      "name": "ethPriceForToken",
      "outputs": [
        {
          "internalType": "uint256",
          "name": "",
          "type": "uint256"
        }
      ],
      "stateMutability": "view",
      "type": "function"
    },
    {
      "inputs": [],
      "name": "getContractInfo",
      "outputs": [
        {
          "internalType": "address",
          "name": "tokenAddress",
          "type": "address"
        },
        {
          "internalType": "string",
          "name": "tokenSymbol",
          "type": "string"
        },
        {
          "internalType": "uint8",
          "name": "tokenDecimals",
          "type": "uint8"
        },
        {
          "internalType": "uint256",
          "name": "tokenBalance",
          "type": "uint256"
        },
        {
          "internalType": "uint256",
          "name": "ethPrice",
          "type": "uint256"
        },
        {
          "internalType": "uint256",
          "name": "totalSold",
          "type": "uint256"
        }
      ],
      "stateMutability": "view",
      "type": "function"
    },
    {
      "inputs": [],
      "name": "owner",
      "outputs": [
        {
          "internalType": "address",
          "name": "",
          "type": "address"
        }
      ],
      "stateMutability": "view",
      "type": "function"
    },
    {
      "inputs": [
        {
          "internalType": "address",
          "name": "tokenAddress",
          "type": "address"
        }
      ],
      "name": "rescueTokens",
      "outputs": [],
      "stateMutability": "nonpayable",
      "type": "function"
    },
    {
      "inputs": [],
      "name": "saleToken",
      "outputs": [
        {
          "internalType": "address",
          "name": "",
          "type": "address"
        }
      ],
      "stateMutability": "view",
      "type": "function"
    },
    {
      "inputs": [
        {
          "internalType": "address",
          "name": "_token",
          "type": "address"
        }
      ],
      "name": "setSaleToken",
      "outputs": [],
      "stateMutability": "nonpayable",
      "type": "function"
    },
    {
      "inputs": [],
      "name": "tokensSold",
      "outputs": [
        {
          "internalType": "uint256",
          "name": "",
          "type": "uint256"
        }
      ],
      "stateMutability": "view",
      "type": "function"
    },
    {
      "inputs": [
        {
          "internalType": "uint256",
          "name": "newPrice",
          "type": "uint256"
        }
      ],
      "name": "updateTokenPrice",
      "outputs": [],
      "stateMutability": "nonpayable",
      "type": "function"
    },
    {
      "inputs": [],
      "name": "withdrawAllTokens",
      "outputs": [],
      "stateMutability": "nonpayable",
      "type": "function"
    },
    {
      "stateMutability": "payable",
      "type": "receive"
    }
  ],
  "bytecode": "0x60a080604052346100515766038d7ea4c6800060015533608052610a1a908161005782396080518181816101b90152818161032d015281816103c5015281816105dc0152818161069901526108080152f35b600080fdfe608060408181526004918236101561002b575b50361561001e57600080fd5b5163b67b8d2960e01b8152fd5b600090813560e01c908162ae3bf8146107da57508063280da6fa14610684578063518ab2a814610665578063676c0d77146105c45780637cc1f867146103f45780638da5cb5b146103b0578063a29f481c14610302578063a4821719146100eb578063c605af53146100cc5763e985e367036100125790346100c857816003193601126100c857905490516001600160a01b039091168152602090f35b5080fd5b5090346100c857816003193601126100c8576020906001549051908152f35b509190826003193601126102fe5734156102f15782546001600160a01b031680156102e357815163313ce56760e01b81526020939084818381865afa908115610286579060ff9187916102b6575b5016604d81116102a357600a0a80340290348204036102a3576001549081156102905704918260025401600255848451809263a9059cbb60e01b825281898161019a89338a840160209093929193604081019460018060a01b031681520152565b03925af1908115610286578691610259575b501561024b5784808080347f00000000000000000000000000000000000000000000000000000000000000005af13d15610246573d6101ea816109c8565b906101f78651928361095a565b815286863d92013e5b156102385750907f8fafebcaf9d154343dad25669bfa277f4fbacd7ac6b0c4fed522580e040a0f33918151933485528401523392a280f35b8251630db2c7f160e31b8152fd5b610200565b825163022e258160e11b8152fd5b6102799150853d871161027f575b610271818361095a565b810190610992565b386101ac565b503d610267565b84513d88823e3d90fd5b634e487b7160e01b875260128352602487fd5b634e487b7160e01b865260118252602486fd5b6102d69150863d88116102dc575b6102ce818361095a565b8101906109af565b38610139565b503d6102c4565b505163a327f80560e01b8152fd5b5163717e6b7b60e01b8152fd5b8280fd5b5091346102fe5760203660031901126102fe5780356001600160a01b0381811693918490036103ac577f000000000000000000000000000000000000000000000000000000000000000016330361039f57821561039257505081546001600160a01b031916811782557f3f8bb5f6e8ecfb5425a48c996d20089aff3396b3c168c13403c3fa3996f70a028280a280f35b5163e6c4247b60e01b8152fd5b51635fc483c560e01b8152fd5b8480fd5b5090346100c857816003193601126100c857517f00000000000000000000000000000000000000000000000000000000000000006001600160a01b03168152602090f35b509190346102fe57826003193601126102fe57825481516395d89b4160e01b81526001600160a01b039091169184828581865afa9182156105ba57859261053c575b5080519063313ce56760e01b825260209485838281885afa92831561051357879361051d575b508151906370a0823160e01b825230908201528581602481885afa9081156105135787916104dc575b5060e09596506001549160ff600254946104ba83519a8b998a5260c0818b015288519889918260c08d01528c8c019101610937565b16908601526060850152608084015260a0830152601f01601f19168101030190f35b90508581813d831161050c575b6104f3818361095a565b810103126105085760e0959650518695610485565b8680fd5b503d6104e9565b82513d89823e3d90fd5b610535919350863d88116102dc576102ce818361095a565b913861045c565b9091503d8086833e61054e818361095a565b8101906020818303126105b65780519067ffffffffffffffff8211610508570181601f820112156105b6578051610584816109c8565b926105918551948561095a565b81845260208284010111610508576105af9160208085019101610937565b9038610436565b8580fd5b81513d87823e3d90fd5b5091346102fe5760203660031901126102fe578035907f00000000000000000000000000000000000000000000000000000000000000006001600160a01b0316330361065757811561064a5750907f945c1c4e99aa89f648fbfe3df471b916f719e16d960fcec0737d4d56bd69683891600154908060015582519182526020820152a180f35b825162bfc92160e01b8152fd5b8251635fc483c560e01b8152fd5b5090346100c857816003193601126100c8576020906002549051908152f35b509190346102fe57826003193601126102fe577f00000000000000000000000000000000000000000000000000000000000000006001600160a01b0380821633036107cb578454168251906370a0823160e01b825230858301526020928383602481855afa9283156107c1578793610792575b50821561078257845163a9059cbb60e01b81526001600160a01b039091168682019081526020810193909352918391839182908990829060400103925af191821561077857859261075b575b50501561074e578280f35b5163022e258160e11b8152fd5b6107719250803d1061027f57610271818361095a565b3880610743565b83513d87823e3d90fd5b8451637dd28aa760e11b81528690fd5b9092508381813d83116107ba575b6107aa818361095a565b81010312610508575191386106f7565b503d6107a0565b85513d89823e3d90fd5b505051635fc483c560e01b8152fd5b848484923461093357602090816003193601126103ac5783356001600160a01b0381811691829003610508577f0000000000000000000000000000000000000000000000000000000000000000928184163303610925575086541681146109155783516370a0823160e01b81523086820152918383602481855afa9283156107c15787936108e6575b5082156108d657845163a9059cbb60e01b81526001600160a01b039091168682019081526020810193909352918391839182908990829060400103925af19182156107785785926108b95750501561074e578280f35b6108cf9250803d1061027f57610271818361095a565b8480610743565b84516362f3ba9760e01b81528690fd5b9092508381813d831161090e575b6108fe818361095a565b8101031261050857519187610863565b503d6108f4565b5050505163ad2b859d60e01b8152fd5b635fc483c560e01b81528690fd5b8380fd5b60005b83811061094a5750506000910152565b818101518382015260200161093a565b90601f8019910116810190811067ffffffffffffffff82111761097c57604052565b634e487b7160e01b600052604160045260246000fd5b908160209103126109aa575180151581036109aa5790565b600080fd5b908160209103126109aa575160ff811681036109aa5790565b67ffffffffffffffff811161097c57601f01601f19166020019056fea2646970667358221220ba5cb9b0acab9bd53bc8ab8a42dd05828bd5a78b2a0761a4f4bcce9563c9101164736f6c63430008130033",
  "linkReferences": {},
  "deployedLinkReferences": {}
}