{"contracts/TokenICO.sol":{"TokenICO":{"abi":[{"inputs":[],"stateMutability":"nonpayable","type":"constructor"},{"inputs":[],"name":"CannotRescueSaleToken","type":"error"},{"inputs":[],"name":"EthTransferFailed","type":"error"},{"inputs":[],"name":"InvalidAddress","type":"error"},{"inputs":[],"name":"InvalidPrice","type":"error"},{"inputs":[],"name":"NoEthSent","type":"error"},{"inputs":[],"name":"NoTokensToRescue","type":"error"},{"inputs":[],"name":"NoTokensToWithdraw","type":"error"},{"inputs":[],"name":"OnlyOwner","type":"error"},{"inputs":[],"name":"SaleTokenNotSet","type":"error"},{"inputs":[],"name":"TokenTransferFailed","type":"error"},{"inputs":[],"name":"UseTokenFunction","type":"error"},{"anonymous":false,"inputs":[{"indexed":false,"internalType":"uint256","name":"oldPrice","type":"uint256"},{"indexed":false,"internalType":"uint256","name":"newPrice","type":"uint256"}],"name":"PriceUpdated","type":"event"},{"anonymous":false,"inputs":[{"indexed":true,"internalType":"address","name":"token","type":"address"}],"name":"SaleTokenSet","type":"event"},{"anonymous":false,"inputs":[{"indexed":true,"internalType":"address","name":"buyer","type":"address"},{"indexed":false,"internalType":"uint256","name":"amountPaid","type":"uint256"},{"indexed":false,"internalType":"uint256","name":"tokensBought","type":"uint256"}],"name":"TokensPurchased","type":"event"},{"inputs":[],"name":"buyToken","outputs":[],"stateMutability":"payable","type":"function"},{"inputs":[],"name":"ethPriceForToken","outputs":[{"internalType":"uint256","name":"","type":"uint256"}],"stateMutability":"view","type":"function"},{"inputs":[],"name":"getContractInfo","outputs":[{"internalType":"address","name":"tokenAddress","type":"address"},{"internalType":"string","name":"tokenSymbol","type":"string"},{"internalType":"uint8","name":"tokenDecimals","type":"uint8"},{"internalType":"uint256","name":"tokenBalance","type":"uint256"},{"internalType":"uint256","name":"ethPrice","type":"uint256"},{"internalType":"uint256","name":"totalSold","type":"uint256"}],"stateMutability":"view","type":"function"},{"inputs":[],"name":"owner","outputs":[{"internalType":"address","name":"","type":"address"}],"stateMutability":"view","type":"function"},{"inputs":[{"internalType":"address","name":"tokenAddress","type":"address"}],"name":"rescueTokens","outputs":[],"stateMutability":"nonpayable","type":"function"},{"inputs":[],"name":"saleToken","outputs":[{"internalType":"address","name":"","type":"address"}],"stateMutability":"view","type":"function"},{"inputs":[{"internalType":"address","name":"_token","type":"address"}],"name":"setSaleToken","outputs":[],"stateMutability":"nonpayable","type":"function"},{"inputs":[],"name":"tokensSold","outputs":[{"internalType":"uint256","name":"","type":"uint256"}],"stateMutability":"view","type":"function"},{"inputs":[{"internalType":"uint256","name":"newPrice","type":"uint256"}],"name":"updateTokenPrice","outputs":[],"stateMutability":"nonpayable","type":"function"},{"inputs":[],"name":"withdrawAllTokens","outputs":[],"stateMutability":"nonpayable","type":"function"},{"stateMutability":"payable","type":"receive"}],"evm":{"bytecode":{"linkReferences":{},"object":"60a080604052346100515766038d7ea4c6800060015533608052610a1a908161005782396080518181816101b90152818161032d015281816103c5015281816105dc0152818161069901526108080152f35b600080fdfe608060408181526004918236101561002b575b50361561001e57600080fd5b5163b67b8d2960e01b8152fd5b600090813560e01c908162ae3bf8146107da57508063280da6fa14610684578063518ab2a814610665578063676c0d77146105c45780637cc1f867146103f45780638da5cb5b146103b0578063a29f481c14610302578063a4821719146100eb578063c605af53146100cc5763e985e367036100125790346100c857816003193601126100c857905490516001600160a01b039091168152602090f35b5080fd5b5090346100c857816003193601126100c8576020906001549051908152f35b509190826003193601126102fe5734156102f15782546001600160a01b031680156102e357815163313ce56760e01b81526020939084818381865afa908115610286579060ff9187916102b6575b5016604d81116102a357600a0a80340290348204036102a3576001549081156102905704918260025401600255848451809263a9059cbb60e01b825281898161019a89338a840160209093929193604081019460018060a01b031681520152565b03925af1908115610286578691610259575b501561024b5784808080347f00000000000000000000000000000000000000000000000000000000000000005af13d15610246573d6101ea816109c8565b906101f78651928361095a565b815286863d92013e5b156102385750907f8fafebcaf9d154343dad25669bfa277f4fbacd7ac6b0c4fed522580e040a0f33918151933485528401523392a280f35b8251630db2c7f160e31b8152fd5b610200565b825163022e258160e11b8152fd5b6102799150853d871161027f575b610271818361095a565b810190610992565b386101ac565b503d610267565b84513d88823e3d90fd5b634e487b7160e01b875260128352602487fd5b634e487b7160e01b865260118252602486fd5b6102d69150863d88116102dc575b6102ce818361095a565b8101906109af565b38610139565b503d6102c4565b505163a327f80560e01b8152fd5b5163717e6b7b60e01b8152fd5b8280fd5b5091346102fe5760203660031901126102fe5780356001600160a01b0381811693918490036103ac577f000000000000000000000000000000000000000000000000000000000000000016330361039f57821561039257505081546001600160a01b031916811782557f3f8bb5f6e8ecfb5425a48c996d20089aff3396b3c168c13403c3fa3996f70a028280a280f35b5163e6c4247b60e01b8152fd5b51635fc483c560e01b8152fd5b8480fd5b5090346100c857816003193601126100c857517f00000000000000000000000000000000000000000000000000000000000000006001600160a01b03168152602090f35b509190346102fe57826003193601126102fe57825481516395d89b4160e01b81526001600160a01b039091169184828581865afa9182156105ba57859261053c575b5080519063313ce56760e01b825260209485838281885afa92831561051357879361051d575b508151906370a0823160e01b825230908201528581602481885afa9081156105135787916104dc575b5060e09596506001549160ff600254946104ba83519a8b998a5260c0818b015288519889918260c08d01528c8c019101610937565b16908601526060850152608084015260a0830152601f01601f19168101030190f35b90508581813d831161050c575b6104f3818361095a565b810103126105085760e0959650518695610485565b8680fd5b503d6104e9565b82513d89823e3d90fd5b610535919350863d88116102dc576102ce818361095a565b913861045c565b9091503d8086833e61054e818361095a565b8101906020818303126105b65780519067ffffffffffffffff8211610508570181601f820112156105b6578051610584816109c8565b926105918551948561095a565b81845260208284010111610508576105af9160208085019101610937565b9038610436565b8580fd5b81513d87823e3d90fd5b5091346102fe5760203660031901126102fe578035907f00000000000000000000000000000000000000000000000000000000000000006001600160a01b0316330361065757811561064a5750907f945c1c4e99aa89f648fbfe3df471b916f719e16d960fcec0737d4d56bd69683891600154908060015582519182526020820152a180f35b825162bfc92160e01b8152fd5b8251635fc483c560e01b8152fd5b5090346100c857816003193601126100c8576020906002549051908152f35b509190346102fe57826003193601126102fe577f00000000000000000000000000000000000000000000000000000000000000006001600160a01b0380821633036107cb578454168251906370a0823160e01b825230858301526020928383602481855afa9283156107c1578793610792575b50821561078257845163a9059cbb60e01b81526001600160a01b039091168682019081526020810193909352918391839182908990829060400103925af191821561077857859261075b575b50501561074e578280f35b5163022e258160e11b8152fd5b6107719250803d1061027f57610271818361095a565b3880610743565b83513d87823e3d90fd5b8451637dd28aa760e11b81528690fd5b9092508381813d83116107ba575b6107aa818361095a565b81010312610508575191386106f7565b503d6107a0565b85513d89823e3d90fd5b505051635fc483c560e01b8152fd5b848484923461093357602090816003193601126103ac5783356001600160a01b0381811691829003610508577f0000000000000000000000000000000000000000000000000000000000000000928184163303610925575086541681146109155783516370a0823160e01b81523086820152918383602481855afa9283156107c15787936108e6575b5082156108d657845163a9059cbb60e01b81526001600160a01b039091168682019081526020810193909352918391839182908990829060400103925af19182156107785785926108b95750501561074e578280f35b6108cf9250803d1061027f57610271818361095a565b8480610743565b84516362f3ba9760e01b81528690fd5b9092508381813d831161090e575b6108fe818361095a565b8101031261050857519187610863565b503d6108f4565b5050505163ad2b859d60e01b8152fd5b635fc483c560e01b81528690fd5b8380fd5b60005b83811061094a5750506000910152565b818101518382015260200161093a565b90601f8019910116810190811067ffffffffffffffff82111761097c57604052565b634e487b7160e01b600052604160045260246000fd5b908160209103126109aa575180151581036109aa5790565b600080fd5b908160209103126109aa575160ff811681036109aa5790565b67ffffffffffffffff811161097c57601f01601f19166020019056fea2646970667358221220ba5cb9b0acab9bd53bc8ab8a42dd05828bd5a78b2a0761a4f4bcce9563c9101164736f6c63430008130033","opcodes":"PUSH1 0xA0 DUP1 PUSH1 0x40 MSTORE CALLVALUE PUSH2 0x51 JUMPI PUSH7 0x38D7EA4C68000 PUSH1 0x1 SSTORE CALLER PUSH1 0x80 MSTORE PUSH2 0xA1A SWAP1 DUP2 PUSH2 0x57 DUP3 CODECOPY PUSH1 0x80 MLOAD DUP2 DUP2 DUP2 PUSH2 0x1B9 ADD MSTORE DUP2 DUP2 PUSH2 0x32D ADD MSTORE DUP2 DUP2 PUSH2 0x3C5 ADD MSTORE DUP2 DUP2 PUSH2 0x5DC ADD MSTORE DUP2 DUP2 PUSH2 0x699 ADD MSTORE PUSH2 0x808 ADD MSTORE RETURN JUMPDEST PUSH1 0x0 DUP1 REVERT INVALID PUSH1 0x80 PUSH1 0x40 DUP2 DUP2 MSTORE PUSH1 0x4 SWAP2 DUP3 CALLDATASIZE LT ISZERO PUSH2 0x2B JUMPI JUMPDEST POP CALLDATASIZE ISZERO PUSH2 0x1E JUMPI PUSH1 0x0 DUP1 REVERT JUMPDEST MLOAD PUSH4 0xB67B8D29 PUSH1 0xE0 SHL DUP2 MSTORE REVERT JUMPDEST PUSH1 0x0 SWAP1 DUP2 CALLDATALOAD PUSH1 0xE0 SHR SWAP1 DUP2 PUSH3 0xAE3BF8 EQ PUSH2 0x7DA JUMPI POP DUP1 PUSH4 0x280DA6FA EQ PUSH2 0x684 JUMPI DUP1 PUSH4 0x518AB2A8 EQ PUSH2 0x665 JUMPI DUP1 PUSH4 0x676C0D77 EQ PUSH2 0x5C4 JUMPI DUP1 PUSH4 0x7CC1F867 EQ PUSH2 0x3F4 JUMPI DUP1 PUSH4 0x8DA5CB5B EQ PUSH2 0x3B0 JUMPI DUP1 PUSH4 0xA29F481C EQ PUSH2 0x302 JUMPI DUP1 PUSH4 0xA4821719 EQ PUSH2 0xEB JUMPI DUP1 PUSH4 0xC605AF53 EQ PUSH2 0xCC JUMPI PUSH4 0xE985E367 SUB PUSH2 0x12 JUMPI SWAP1 CALLVALUE PUSH2 0xC8 JUMPI DUP2 PUSH1 0x3 NOT CALLDATASIZE ADD SLT PUSH2 0xC8 JUMPI SWAP1 SLOAD SWAP1 MLOAD PUSH1 0x1 PUSH1 0x1 PUSH1 0xA0 SHL SUB SWAP1 SWAP2 AND DUP2 MSTORE PUSH1 0x20 SWAP1 RETURN JUMPDEST POP DUP1 REVERT JUMPDEST POP SWAP1 CALLVALUE PUSH2 0xC8 JUMPI DUP2 PUSH1 0x3 NOT CALLDATASIZE ADD SLT PUSH2 0xC8 JUMPI PUSH1 0x20 SWAP1 PUSH1 0x1 SLOAD SWAP1 MLOAD SWAP1 DUP2 MSTORE RETURN JUMPDEST POP SWAP2 SWAP1 DUP3 PUSH1 0x3 NOT CALLDATASIZE ADD SLT PUSH2 0x2FE JUMPI CALLVALUE ISZERO PUSH2 0x2F1 JUMPI DUP3 SLOAD PUSH1 0x1 PUSH1 0x1 PUSH1 0xA0 SHL SUB AND DUP1 ISZERO PUSH2 0x2E3 JUMPI DUP2 MLOAD PUSH4 0x313CE567 PUSH1 0xE0 SHL DUP2 MSTORE PUSH1 0x20 SWAP4 SWAP1 DUP5 DUP2 DUP4 DUP2 DUP7 GAS STATICCALL SWAP1 DUP2 ISZERO PUSH2 0x286 JUMPI SWAP1 PUSH1 0xFF SWAP2 DUP8 SWAP2 PUSH2 0x2B6 JUMPI JUMPDEST POP AND PUSH1 0x4D DUP2 GT PUSH2 0x2A3 JUMPI PUSH1 0xA EXP DUP1 CALLVALUE MUL SWAP1 CALLVALUE DUP3 DIV SUB PUSH2 0x2A3 JUMPI PUSH1 0x1 SLOAD SWAP1 DUP2 ISZERO PUSH2 0x290 JUMPI DIV SWAP2 DUP3 PUSH1 0x2 SLOAD ADD PUSH1 0x2 SSTORE DUP5 DUP5 MLOAD DUP1 SWAP3 PUSH4 0xA9059CBB PUSH1 0xE0 SHL DUP3 MSTORE DUP2 DUP10 DUP2 PUSH2 0x19A DUP10 CALLER DUP11 DUP5 ADD PUSH1 0x20 SWAP1 SWAP4 SWAP3 SWAP2 SWAP4 PUSH1 0x40 DUP2 ADD SWAP5 PUSH1 0x1 DUP1 PUSH1 0xA0 SHL SUB AND DUP2 MSTORE ADD MSTORE JUMP JUMPDEST SUB SWAP3 GAS CALL SWAP1 DUP2 ISZERO PUSH2 0x286 JUMPI DUP7 SWAP2 PUSH2 0x259 JUMPI JUMPDEST POP ISZERO PUSH2 0x24B JUMPI DUP5 DUP1 DUP1 DUP1 CALLVALUE PUSH32 0x0 GAS CALL RETURNDATASIZE ISZERO PUSH2 0x246 JUMPI RETURNDATASIZE PUSH2 0x1EA DUP2 PUSH2 0x9C8 JUMP JUMPDEST SWAP1 PUSH2 0x1F7 DUP7 MLOAD SWAP3 DUP4 PUSH2 0x95A JUMP JUMPDEST DUP2 MSTORE DUP7 DUP7 RETURNDATASIZE SWAP3 ADD RETURNDATACOPY JUMPDEST ISZERO PUSH2 0x238 JUMPI POP SWAP1 PUSH32 0x8FAFEBCAF9D154343DAD25669BFA277F4FBACD7AC6B0C4FED522580E040A0F33 SWAP2 DUP2 MLOAD SWAP4 CALLVALUE DUP6 MSTORE DUP5 ADD MSTORE CALLER SWAP3 LOG2 DUP1 RETURN JUMPDEST DUP3 MLOAD PUSH4 0xDB2C7F1 PUSH1 0xE3 SHL DUP2 MSTORE REVERT JUMPDEST PUSH2 0x200 JUMP JUMPDEST DUP3 MLOAD PUSH4 0x22E2581 PUSH1 0xE1 SHL DUP2 MSTORE REVERT JUMPDEST PUSH2 0x279 SWAP2 POP DUP6 RETURNDATASIZE DUP8 GT PUSH2 0x27F JUMPI JUMPDEST PUSH2 0x271 DUP2 DUP4 PUSH2 0x95A JUMP JUMPDEST DUP2 ADD SWAP1 PUSH2 0x992 JUMP JUMPDEST CODESIZE PUSH2 0x1AC JUMP JUMPDEST POP RETURNDATASIZE PUSH2 0x267 JUMP JUMPDEST DUP5 MLOAD RETURNDATASIZE DUP9 DUP3 RETURNDATACOPY RETURNDATASIZE SWAP1 REVERT JUMPDEST PUSH4 0x4E487B71 PUSH1 0xE0 SHL DUP8 MSTORE PUSH1 0x12 DUP4 MSTORE PUSH1 0x24 DUP8 REVERT JUMPDEST PUSH4 0x4E487B71 PUSH1 0xE0 SHL DUP7 MSTORE PUSH1 0x11 DUP3 MSTORE PUSH1 0x24 DUP7 REVERT JUMPDEST PUSH2 0x2D6 SWAP2 POP DUP7 RETURNDATASIZE DUP9 GT PUSH2 0x2DC JUMPI JUMPDEST PUSH2 0x2CE DUP2 DUP4 PUSH2 0x95A JUMP JUMPDEST DUP2 ADD SWAP1 PUSH2 0x9AF JUMP JUMPDEST CODESIZE PUSH2 0x139 JUMP JUMPDEST POP RETURNDATASIZE PUSH2 0x2C4 JUMP JUMPDEST POP MLOAD PUSH4 0xA327F805 PUSH1 0xE0 SHL DUP2 MSTORE REVERT JUMPDEST MLOAD PUSH4 0x717E6B7B PUSH1 0xE0 SHL DUP2 MSTORE REVERT JUMPDEST DUP3 DUP1 REVERT JUMPDEST POP SWAP2 CALLVALUE PUSH2 0x2FE JUMPI PUSH1 0x20 CALLDATASIZE PUSH1 0x3 NOT ADD SLT PUSH2 0x2FE JUMPI DUP1 CALLDATALOAD PUSH1 0x1 PUSH1 0x1 PUSH1 0xA0 SHL SUB DUP2 DUP2 AND SWAP4 SWAP2 DUP5 SWAP1 SUB PUSH2 0x3AC JUMPI PUSH32 0x0 AND CALLER SUB PUSH2 0x39F JUMPI DUP3 ISZERO PUSH2 0x392 JUMPI POP POP DUP2 SLOAD PUSH1 0x1 PUSH1 0x1 PUSH1 0xA0 SHL SUB NOT AND DUP2 OR DUP3 SSTORE PUSH32 0x3F8BB5F6E8ECFB5425A48C996D20089AFF3396B3C168C13403C3FA3996F70A02 DUP3 DUP1 LOG2 DUP1 RETURN JUMPDEST MLOAD PUSH4 0xE6C4247B PUSH1 0xE0 SHL DUP2 MSTORE REVERT JUMPDEST MLOAD PUSH4 0x5FC483C5 PUSH1 0xE0 SHL DUP2 MSTORE REVERT JUMPDEST DUP5 DUP1 REVERT JUMPDEST POP SWAP1 CALLVALUE PUSH2 0xC8 JUMPI DUP2 PUSH1 0x3 NOT CALLDATASIZE ADD SLT PUSH2 0xC8 JUMPI MLOAD PUSH32 0x0 PUSH1 0x1 PUSH1 0x1 PUSH1 0xA0 SHL SUB AND DUP2 MSTORE PUSH1 0x20 SWAP1 RETURN JUMPDEST POP SWAP2 SWAP1 CALLVALUE PUSH2 0x2FE JUMPI DUP3 PUSH1 0x3 NOT CALLDATASIZE ADD SLT PUSH2 0x2FE JUMPI DUP3 SLOAD DUP2 MLOAD PUSH4 0x95D89B41 PUSH1 0xE0 SHL DUP2 MSTORE PUSH1 0x1 PUSH1 0x1 PUSH1 0xA0 SHL SUB SWAP1 SWAP2 AND SWAP2 DUP5 DUP3 DUP6 DUP2 DUP7 GAS STATICCALL SWAP2 DUP3 ISZERO PUSH2 0x5BA JUMPI DUP6 SWAP3 PUSH2 0x53C JUMPI JUMPDEST POP DUP1 MLOAD SWAP1 PUSH4 0x313CE567 PUSH1 0xE0 SHL DUP3 MSTORE PUSH1 0x20 SWAP5 DUP6 DUP4 DUP3 DUP2 DUP9 GAS STATICCALL SWAP3 DUP4 ISZERO PUSH2 0x513 JUMPI DUP8 SWAP4 PUSH2 0x51D JUMPI JUMPDEST POP DUP2 MLOAD SWAP1 PUSH4 0x70A08231 PUSH1 0xE0 SHL DUP3 MSTORE ADDRESS SWAP1 DUP3 ADD MSTORE DUP6 DUP2 PUSH1 0x24 DUP2 DUP9 GAS STATICCALL SWAP1 DUP2 ISZERO PUSH2 0x513 JUMPI DUP8 SWAP2 PUSH2 0x4DC JUMPI JUMPDEST POP PUSH1 0xE0 SWAP6 SWAP7 POP PUSH1 0x1 SLOAD SWAP2 PUSH1 0xFF PUSH1 0x2 SLOAD SWAP5 PUSH2 0x4BA DUP4 MLOAD SWAP11 DUP12 SWAP10 DUP11 MSTORE PUSH1 0xC0 DUP2 DUP12 ADD MSTORE DUP9 MLOAD SWAP9 DUP10 SWAP2 DUP3 PUSH1 0xC0 DUP14 ADD MSTORE DUP13 DUP13 ADD SWAP2 ADD PUSH2 0x937 JUMP JUMPDEST AND SWAP1 DUP7 ADD MSTORE PUSH1 0x60 DUP6 ADD MSTORE PUSH1 0x80 DUP5 ADD MSTORE PUSH1 0xA0 DUP4 ADD MSTORE PUSH1 0x1F ADD PUSH1 0x1F NOT AND DUP2 ADD SUB ADD SWAP1 RETURN JUMPDEST SWAP1 POP DUP6 DUP2 DUP2 RETURNDATASIZE DUP4 GT PUSH2 0x50C JUMPI JUMPDEST PUSH2 0x4F3 DUP2 DUP4 PUSH2 0x95A JUMP JUMPDEST DUP2 ADD SUB SLT PUSH2 0x508 JUMPI PUSH1 0xE0 SWAP6 SWAP7 POP MLOAD DUP7 SWAP6 PUSH2 0x485 JUMP JUMPDEST DUP7 DUP1 REVERT JUMPDEST POP RETURNDATASIZE PUSH2 0x4E9 JUMP JUMPDEST DUP3 MLOAD RETURNDATASIZE DUP10 DUP3 RETURNDATACOPY RETURNDATASIZE SWAP1 REVERT JUMPDEST PUSH2 0x535 SWAP2 SWAP4 POP DUP7 RETURNDATASIZE DUP9 GT PUSH2 0x2DC JUMPI PUSH2 0x2CE DUP2 DUP4 PUSH2 0x95A JUMP JUMPDEST SWAP2 CODESIZE PUSH2 0x45C JUMP JUMPDEST SWAP1 SWAP2 POP RETURNDATASIZE DUP1 DUP7 DUP4 RETURNDATACOPY PUSH2 0x54E DUP2 DUP4 PUSH2 0x95A JUMP JUMPDEST DUP2 ADD SWAP1 PUSH1 0x20 DUP2 DUP4 SUB SLT PUSH2 0x5B6 JUMPI DUP1 MLOAD SWAP1 PUSH8 0xFFFFFFFFFFFFFFFF DUP3 GT PUSH2 0x508 JUMPI ADD DUP2 PUSH1 0x1F DUP3 ADD SLT ISZERO PUSH2 0x5B6 JUMPI DUP1 MLOAD PUSH2 0x584 DUP2 PUSH2 0x9C8 JUMP JUMPDEST SWAP3 PUSH2 0x591 DUP6 MLOAD SWAP5 DUP6 PUSH2 0x95A JUMP JUMPDEST DUP2 DUP5 MSTORE PUSH1 0x20 DUP3 DUP5 ADD ADD GT PUSH2 0x508 JUMPI PUSH2 0x5AF SWAP2 PUSH1 0x20 DUP1 DUP6 ADD SWAP2 ADD PUSH2 0x937 JUMP JUMPDEST SWAP1 CODESIZE PUSH2 0x436 JUMP JUMPDEST DUP6 DUP1 REVERT JUMPDEST DUP2 MLOAD RETURNDATASIZE DUP8 DUP3 RETURNDATACOPY RETURNDATASIZE SWAP1 REVERT JUMPDEST POP SWAP2 CALLVALUE PUSH2 0x2FE JUMPI PUSH1 0x20 CALLDATASIZE PUSH1 0x3 NOT ADD SLT PUSH2 0x2FE JUMPI DUP1 CALLDATALOAD SWAP1 PUSH32 0x0 PUSH1 0x1 PUSH1 0x1 PUSH1 0xA0 SHL SUB AND CALLER SUB PUSH2 0x657 JUMPI DUP2 ISZERO PUSH2 0x64A JUMPI POP SWAP1 PUSH32 0x945C1C4E99AA89F648FBFE3DF471B916F719E16D960FCEC0737D4D56BD696838 SWAP2 PUSH1 0x1 SLOAD SWAP1 DUP1 PUSH1 0x1 SSTORE DUP3 MLOAD SWAP2 DUP3 MSTORE PUSH1 0x20 DUP3 ADD MSTORE LOG1 DUP1 RETURN JUMPDEST DUP3 MLOAD PUSH3 0xBFC921 PUSH1 0xE0 SHL DUP2 MSTORE REVERT JUMPDEST DUP3 MLOAD PUSH4 0x5FC483C5 PUSH1 0xE0 SHL DUP2 MSTORE REVERT JUMPDEST POP SWAP1 CALLVALUE PUSH2 0xC8 JUMPI DUP2 PUSH1 0x3 NOT CALLDATASIZE ADD SLT PUSH2 0xC8 JUMPI PUSH1 0x20 SWAP1 PUSH1 0x2 SLOAD SWAP1 MLOAD SWAP1 DUP2 MSTORE RETURN JUMPDEST POP SWAP2 SWAP1 CALLVALUE PUSH2 0x2FE JUMPI DUP3 PUSH1 0x3 NOT CALLDATASIZE ADD SLT PUSH2 0x2FE JUMPI PUSH32 0x0 PUSH1 0x1 PUSH1 0x1 PUSH1 0xA0 SHL SUB DUP1 DUP3 AND CALLER SUB PUSH2 0x7CB JUMPI DUP5 SLOAD AND DUP3 MLOAD SWAP1 PUSH4 0x70A08231 PUSH1 0xE0 SHL DUP3 MSTORE ADDRESS DUP6 DUP4 ADD MSTORE PUSH1 0x20 SWAP3 DUP4 DUP4 PUSH1 0x24 DUP2 DUP6 GAS STATICCALL SWAP3 DUP4 ISZERO PUSH2 0x7C1 JUMPI DUP8 SWAP4 PUSH2 0x792 JUMPI JUMPDEST POP DUP3 ISZERO PUSH2 0x782 JUMPI DUP5 MLOAD PUSH4 0xA9059CBB PUSH1 0xE0 SHL DUP2 MSTORE PUSH1 0x1 PUSH1 0x1 PUSH1 0xA0 SHL SUB SWAP1 SWAP2 AND DUP7 DUP3 ADD SWAP1 DUP2 MSTORE PUSH1 0x20 DUP2 ADD SWAP4 SWAP1 SWAP4 MSTORE SWAP2 DUP4 SWAP2 DUP4 SWAP2 DUP3 SWAP1 DUP10 SWAP1 DUP3 SWAP1 PUSH1 0x40 ADD SUB SWAP3 GAS CALL SWAP2 DUP3 ISZERO PUSH2 0x778 JUMPI DUP6 SWAP3 PUSH2 0x75B JUMPI JUMPDEST POP POP ISZERO PUSH2 0x74E JUMPI DUP3 DUP1 RETURN JUMPDEST MLOAD PUSH4 0x22E2581 PUSH1 0xE1 SHL DUP2 MSTORE REVERT JUMPDEST PUSH2 0x771 SWAP3 POP DUP1 RETURNDATASIZE LT PUSH2 0x27F JUMPI PUSH2 0x271 DUP2 DUP4 PUSH2 0x95A JUMP JUMPDEST CODESIZE DUP1 PUSH2 0x743 JUMP JUMPDEST DUP4 MLOAD RETURNDATASIZE DUP8 DUP3 RETURNDATACOPY RETURNDATASIZE SWAP1 REVERT JUMPDEST DUP5 MLOAD PUSH4 0x7DD28AA7 PUSH1 0xE1 SHL DUP2 MSTORE DUP7 SWAP1 REVERT JUMPDEST SWAP1 SWAP3 POP DUP4 DUP2 DUP2 RETURNDATASIZE DUP4 GT PUSH2 0x7BA JUMPI JUMPDEST PUSH2 0x7AA DUP2 DUP4 PUSH2 0x95A JUMP JUMPDEST DUP2 ADD SUB SLT PUSH2 0x508 JUMPI MLOAD SWAP2 CODESIZE PUSH2 0x6F7 JUMP JUMPDEST POP RETURNDATASIZE PUSH2 0x7A0 JUMP JUMPDEST DUP6 MLOAD RETURNDATASIZE DUP10 DUP3 RETURNDATACOPY RETURNDATASIZE SWAP1 REVERT JUMPDEST POP POP MLOAD PUSH4 0x5FC483C5 PUSH1 0xE0 SHL DUP2 MSTORE REVERT JUMPDEST DUP5 DUP5 DUP5 SWAP3 CALLVALUE PUSH2 0x933 JUMPI PUSH1 0x20 SWAP1 DUP2 PUSH1 0x3 NOT CALLDATASIZE ADD SLT PUSH2 0x3AC JUMPI DUP4 CALLDATALOAD PUSH1 0x1 PUSH1 0x1 PUSH1 0xA0 SHL SUB DUP2 DUP2 AND SWAP2 DUP3 SWAP1 SUB PUSH2 0x508 JUMPI PUSH32 0x0 SWAP3 DUP2 DUP5 AND CALLER SUB PUSH2 0x925 JUMPI POP DUP7 SLOAD AND DUP2 EQ PUSH2 0x915 JUMPI DUP4 MLOAD PUSH4 0x70A08231 PUSH1 0xE0 SHL DUP2 MSTORE ADDRESS DUP7 DUP3 ADD MSTORE SWAP2 DUP4 DUP4 PUSH1 0x24 DUP2 DUP6 GAS STATICCALL SWAP3 DUP4 ISZERO PUSH2 0x7C1 JUMPI DUP8 SWAP4 PUSH2 0x8E6 JUMPI JUMPDEST POP DUP3 ISZERO PUSH2 0x8D6 JUMPI DUP5 MLOAD PUSH4 0xA9059CBB PUSH1 0xE0 SHL DUP2 MSTORE PUSH1 0x1 PUSH1 0x1 PUSH1 0xA0 SHL SUB SWAP1 SWAP2 AND DUP7 DUP3 ADD SWAP1 DUP2 MSTORE PUSH1 0x20 DUP2 ADD SWAP4 SWAP1 SWAP4 MSTORE SWAP2 DUP4 SWAP2 DUP4 SWAP2 DUP3 SWAP1 DUP10 SWAP1 DUP3 SWAP1 PUSH1 0x40 ADD SUB SWAP3 GAS CALL SWAP2 DUP3 ISZERO PUSH2 0x778 JUMPI DUP6 SWAP3 PUSH2 0x8B9 JUMPI POP POP ISZERO PUSH2 0x74E JUMPI DUP3 DUP1 RETURN JUMPDEST PUSH2 0x8CF SWAP3 POP DUP1 RETURNDATASIZE LT PUSH2 0x27F JUMPI PUSH2 0x271 DUP2 DUP4 PUSH2 0x95A JUMP JUMPDEST DUP5 DUP1 PUSH2 0x743 JUMP JUMPDEST DUP5 MLOAD PUSH4 0x62F3BA97 PUSH1 0xE0 SHL DUP2 MSTORE DUP7 SWAP1 REVERT JUMPDEST SWAP1 SWAP3 POP DUP4 DUP2 DUP2 RETURNDATASIZE DUP4 GT PUSH2 0x90E JUMPI JUMPDEST PUSH2 0x8FE DUP2 DUP4 PUSH2 0x95A JUMP JUMPDEST DUP2 ADD SUB SLT PUSH2 0x508 JUMPI MLOAD SWAP2 DUP8 PUSH2 0x863 JUMP JUMPDEST POP RETURNDATASIZE PUSH2 0x8F4 JUMP JUMPDEST POP POP POP MLOAD PUSH4 0xAD2B859D PUSH1 0xE0 SHL DUP2 MSTORE REVERT JUMPDEST PUSH4 0x5FC483C5 PUSH1 0xE0 SHL DUP2 MSTORE DUP7 SWAP1 REVERT JUMPDEST DUP4 DUP1 REVERT JUMPDEST PUSH1 0x0 JUMPDEST DUP4 DUP2 LT PUSH2 0x94A JUMPI POP POP PUSH1 0x0 SWAP2 ADD MSTORE JUMP JUMPDEST DUP2 DUP2 ADD MLOAD DUP4 DUP3 ADD MSTORE PUSH1 0x20 ADD PUSH2 0x93A JUMP JUMPDEST SWAP1 PUSH1 0x1F DUP1 NOT SWAP2 ADD AND DUP2 ADD SWAP1 DUP2 LT PUSH8 0xFFFFFFFFFFFFFFFF DUP3 GT OR PUSH2 0x97C JUMPI PUSH1 0x40 MSTORE JUMP JUMPDEST PUSH4 0x4E487B71 PUSH1 0xE0 SHL PUSH1 0x0 MSTORE PUSH1 0x41 PUSH1 0x4 MSTORE PUSH1 0x24 PUSH1 0x0 REVERT JUMPDEST SWAP1 DUP2 PUSH1 0x20 SWAP2 SUB SLT PUSH2 0x9AA JUMPI MLOAD DUP1 ISZERO ISZERO DUP2 SUB PUSH2 0x9AA JUMPI SWAP1 JUMP JUMPDEST PUSH1 0x0 DUP1 REVERT JUMPDEST SWAP1 DUP2 PUSH1 0x20 SWAP2 SUB SLT PUSH2 0x9AA JUMPI MLOAD PUSH1 0xFF DUP2 AND DUP2 SUB PUSH2 0x9AA JUMPI SWAP1 JUMP JUMPDEST PUSH8 0xFFFFFFFFFFFFFFFF DUP2 GT PUSH2 0x97C JUMPI PUSH1 0x1F ADD PUSH1 0x1F NOT AND PUSH1 0x20 ADD SWAP1 JUMP INVALID LOG2 PUSH5 0x6970667358 0x22 SLT KECCAK256 0xBA 0x5C 0xB9 0xB0 0xAC 0xAB SWAP12 0xD5 EXTCODESIZE 0xC8 0xAB DUP11 TIMESTAMP 0xDD SDIV DUP3 DUP12 0xD5 0xA7 DUP12 0x2A SMOD PUSH2 0xA4F4 0xBC 0xCE SWAP6 PUSH4 0xC9101164 PUSH20 0x6F6C634300081300330000000000000000000000 "},"methodIdentifiers":{"buyToken()":"a4821719","ethPriceForToken()":"c605af53","getContractInfo()":"7cc1f867","owner()":"8da5cb5b","rescueTokens(address)":"00ae3bf8","saleToken()":"e985e367","setSaleToken(address)":"a29f481c","tokensSold()":"518ab2a8","updateTokenPrice(uint256)":"676c0d77","withdrawAllTokens()":"280da6fa"}}}}}